:020000021000EC
:1000B4004111814522C406C62A84EF00207D83A70E
:1000C40081D491C382972285EF208020930700007A
:1000D40091C74965130505A06F00300882809741D8
:1000E40000009381E1BC174500001305E590174615
:1000F40000001306E6C2098E814559251715000034
:100104001305E58519C5172500001305658FEF0054
:10011400D004312502454C000146B12051BF4111A4
:1001240022C483C741D606C691EF9307000081CB52
:1001340049651305C54997000000E700000085479D
:100144002382F1D6B2402244410182809307000009
:1001540091CB4965938581D61305C54917030000E2
:10016400670000008280411106C622C40008C967E6
:1001740013858748B52681473E85B2402244410114
:100184008280014582804D66C5654D651306064B28
:100194009385E5251305054CA9AC4C41411122C4B6
:1001A40006C6938701D82A846384F500EF10E00A19
:1001B4000C44938781DE6385F5002285EF10E00906
:1001C4004C44938701E56388F50022852244B240BC
:1001D40041016F108008B2402244410182800145F0
:1001E40082800111C16722CC9387A718138401D898
:1001F40006CE26CA4AC84EC652C423A4F1D4214608
:10020400914781451385C1DD5CC42320040023226A
:100214000400232404002322040623280400232AA0
:100224000400232C0400A92B416AC1694169C164FB
:10023400C167130ACA4E9389695213096957938493
:10024400645BA50721468145138541E47CD82320BE
:100254004403232234032324240344D440CC2324FE
:10026400040623260406232804062326040C232C30
:100274000406232E0406232004081923B7070200CA
:10028400C907138781DE1385C1EA214681452324EA
:1002940044092326340923282409232A9408232ED5
:1002A400F40C2328040C232A040C232C040C232AE6
:1002B40004122320040E2322040E2324040E2322DA
:1002C400E4087D29938701E52328440F232A340F6A
:1002D400232C240F232E940EF2402326F40E624482
:1002E400D2444249B249224A0561828083A781D41B
:1002F400011126CA06CE22CCAA84C5CB4D681308A8
:10030400084BFD5683274800FD1763C107060324E5
:10031400880029A013048406638AD7040317C40041
:10032400FD176DFBC17785075CC4232204062320D7
:100334000400232404002322040023280400232A85
:100344000400232C0400214681451305C4050D290E
:1003540023280402232A0402232204042324040459
:10036400F24022856244D24405618280032408005D
:1003740019C0228841BF9305C01A268542C6EF00E2
:10038400D00C32482A8405C591475CC1310523202D
:10039400040008C41306001A814542C6D526324813
:1003A400FD56232088002288B1BF253D81BF23202C
:1003B4000800B1479CC06DB75C5991C38280C16786
:1003C40003A781D49387E7195CD96DFB19BD82809B
:1003D40082804D66C1651306064B938565180145F9
:1003E40009A84D66C1651306064B9385251E014574
:1003F40009A079714AD04ECE52CC56CA5AC85EC6AC
:1004040006D622D426D2B28A2A8BAE8B014A8549DB
:100414007D5983A44A00FD1463C6040203A48A0020
:100424008357C40063FBF9008317E400A2855A854F
:1004340063852701829B336AAA00FD141304840692
:10044400E39024FF83AA0A00E3950AFCB2502254E5
:1004540092540259F249D24A424BB24B5285624AF3
:1004640045618280397122DC2A842E852EC606DEFF
:10047400652EB245C9675858930815009387874974
:100484000548101089462ED02AD246CE3ED442D6F4
:1004940032CA36CC0C4421C38397C500F85109668F
:1004A4009396270163C30602F976FD16D18F758FE3
:1004B4002396F500F8D122855008EF10800711E942
:1004C4002945F25062542161828093172701E3D4B5
:1004D40007FE7D55FDB722852EC6F93DB2456DBF99
:1004E400AA8503A5C1D3BDBF411122C42E8483951F
:1004F400E50006C64D2A634905003C48B240AA9768
:100504003CC82244410182808357C4007D777D1713
:10051400F98FB2402316F400224441018280014540
:1005240082808397C5000111368306CE93F60710A7
:100534002E87B2882A8891EEFD76FD16F240F58F5B
:100544008315E7002316F7009A86468642850561DF
:1005540049AA8395E50032C4894601461AC63AC0C1
:100564002AC2212202473243A2488317C7001248F5
:10057400E1B7411122C42E848395E50006C6F52017
:100584007D578317C400630BE5000567D98FB2401C
:1005940028C82316F40022444101828013070580F1
:1005A40013070780F98FB2402316F4002244410157
:1005B40082808395E50009A0411122C426C2AA8441
:1005C4002E8506C623A601D4EF10104EFD576307EF
:1005D400F500B240224492444101828083A7C1D4F1
:1005E400EDDBB24022449CC092444101828083A747
:1005F400C1D3638BA7066C41011126CA06CE22CC57
:10060400AA849DC54AC84EC6014993090008B38708
:100614002501804319C4A28500402685012965FC73
:10062400EC401109E31539FF268509214249B249F5
:100634008C5C99C12685DD2EA04011C4A2850040A2
:100644002685ED2665FCEC4499C12685C526DC5833
:1006540099C76244F2402685D24405618287F240FC
:100664006244D2440561828082804111AE8722C4F3
:1006740026C2B285AA8436863E8506C623A601D440
:10068400EF10B04CFD576307F500B240224492448A
:100694004101828083A7C1D4EDDBB24022449CC0D7
:1006A4009244410182804111AE8722C426C2B285A0
:1006B400AA8436863E8506C623A601D4EF10704B65
:1006C400FD576307F500B240224492444101828001
:1006D40083A7C1D4EDDBB24022449CC092444101C3
:1006E40082804111AE8722C426C2B285AA8436868E
:1006F4003E8506C623A601D4EF10504FFD5763076D
:10070400F500B240224492444101828083A7C1D4BF
:10071400EDDBB24022449CC09244410182804111ED
:1007240022C44AC04D644D6906C626C21309094A4B
:100734001304044A630D890033098940135929407D
:1007440081441C40850411048297E3EC24FF4D6925
:100754004D641309894A1304044A630D890033095B
:1007640089401359294081441C408504110482970F
:10077400E3EC24FFB24022449244024941018280C6
:100784003D432A876373C3029377F700BDEFADE55A
:10079400937606FF3D8ABA960CC34CC30CC74CC76C
:1007A4004107E36BD7FE11E28280B306C3408A0699
:1007B4009702000096966780A6002307B700A30659
:1007C400B7002306B700A305B7002305B700A304A9
:1007D400B7002304B700A303B7002303B700A302A1
:1007E400B7002302B700A301B7002301B700A30099
:1007F400B7002300B700828093F5F50F9396850028
:10080400D58D93960501D58D61B7939627009702F0
:10081400000096968682E78086FA9680C1171D8F1F
:100824003E96E374C3F8A5B7937735002A879DEF06
:10083400B7867F7F9386F6F7FD5510431107B3778C
:10084400D600B697D18FD58FE389B7FE8346C7FF0D
:10085400B307A7408DCA8346D7FF9DC20345E7FF70
:100864003335A0003E9579158280F9D2834707007D
:10087400050793763700F5FB098F1305F7FF828090
:100884001385D7FF82801385C7FF8280797152CC8C
:100894004AD003A901D506D6630609044ECE56CA2A
:1008A4005AC85EC622D426D262C42A8BAE8BFD59A6
:1008B400854A832449001384F4FF634E04008A04A8
:1008C400CA9463860B0283A74410638277037D1462
:1008D400F114E31A34FF22549254F249D24A424B9F
:1008E400B24B224CB2500259624A4561828083273E
:1008F4004900D440FD17638C870423A2040095C2E9
:100904008327891833978A00032C4900F98F99EFBC
:1009140082960327490083A701D56317870363954C
:1009240027037D14F114E31E34F975B78327C9181E
:1009340083A544087D8F19EF5A85829603274900C1
:1009440083A701D5E30D87FDD9D73E899DB723221F
:10095400890075B72E8582966DBFAA8581460146AA
:1009640001456F10002901114AC84D6922CC26CADD
:100974004EC62E8406CEAA891309095EEF00B00D77
:10098400832789000567C443F1989387F47F93878D
:10099400077F3384874031807D143204634BE40045
:1009A40081454E85EF10200283278900A697630DA9
:1009B400F5004E85EF00500AF2406244D2444249A9
:1009C400B249014505618280B30580404E85EF0040
:1009D400907FFD576308F5028326890083A781EB86
:1009E400818C93E414004E85818FC4C223ACF1EA58
:1009F400EF009006F2406244D2444249B2490545B0
:100A04000561828081454E85EF00F07B03278900D4
:100A1400BD46B307E540E3DEF6F803A601D493E749
:100A24001700118D5CC323ACA1EA61B7F9CD0111A4
:100A340022CC2EC62A8406CEEF00F001B2454D68C2
:100A44001308085E03A5C5FF138785FF8328880064
:100A54009377E5FF3306F700544213731500F19AB8
:100A6400638FC81054C2B308D60083A8480093F813
:100A740018006318030603A385FFCD659385855E7F
:100A84003307674008479A97630EB50C0323C700E2
:100A9400232665002324A300638C081093E6170023
:100AA40054C31CC29306F01F63EBF60693F687FF4C
:100AB400A10683254800C296904213D55700854766
:100AC400B397A700CD8F938586FF10C74CC7232209
:100AD400F80098C258C622856244F24005616F004E
:100AE400A07763950802CD65B6979385855E144615
:100AF40093E817003305F7006388B60E5046D0C656
:100B040014C6232217011CC171BF8280136515000E
:100B140023AEA5FE1CC29306F01FE3F9F6F893D6A4
:100B2400970011466368D60893D6670093859603A9
:100B34008E0513868603C2959441E1156396D5000C
:100B440075A894466386D500D042719AE3EBC7FE3C
:100B5400CC464CC714C722856244F24098C5D8C617
:100B64000561DDAD639708064C461046BE9693E7D3
:100B740016004CC690C55CC3369714C3A9BFBE9675
:100B8400631A030083A785FF1D8F1047BE965C4739
:100B94005CC690C713E6160083A741D450C3232430
:100BA400E800E3EAF6F283A5C1D522856D3B25B7BB
:100BB400B69735BF51466373D60213064005636981
:100BC400D60493D6C7009385F6068E051386E606EB
:100BD4009DB793E6170054C31CC2F5BD9385C605A3
:100BE4008E051386B60581BF232AE8002328E80072
:100BF4004CC70CC7232217011CC1F1BD03254800B3
:100C040009868547B397C700C98F2322F80091B797
:100C140013064015636AD60093D6F70093858607BA
:100C24008E051386760701BF13064055636AD60006
:100C340093D627019385D6078E051386C607E5BD8F
:100C44009305803F1306E007FDB5397122DC06DE0B
:100C54009387B50059472A84636EF704C14663E459
:100C6400B604D52BC146614789484D681308085E10
:100C740042975C43130687FF6385C730D843D04748
:100C84008C47719B3E975443D0C53EC60CC693E631
:100C94001600228554C3C923B247F2506254138507
:100CA400870021618280B1471CC00145F250625423
:100CB4002161828093F687FFE3C707FEE3E5B6FE72
:100CC40036C6512BB2469307701F63F5D73693D7B8
:100CD4009600638B07101147636AF72E93D766005B
:100CE40093889703138E8703139538004D68130870
:100CF400085E42955C4161156301F5023D4339A0EC
:100D0400CC47635E0624630AB500AE87D843719B63
:100D14003306D740E356C3FEF288832708014D6E9D
:100D2400130E8E5E6387C721D843BD45719B33067E
:100D3400D74063C2C532232AC8012328C80163509F
:100D440006301306F01F032348006361E62413767C
:100D540087FF210642960C42135557000547331767
:100D6400A7003363E300130786FF8CC7D8C7232289
:100D740068001CC2DCC593D7284005453315F5002F
:100D8400636BA306B377650089EF060593F8C8FF84
:100D9400B3776500910891E70605B377650091087C
:100DA400E5DFBD4E139F3800429F7A830327C300BB
:100DB400C68F630DE3225043BA875847719AB3052F
:100DC400D64063CDBE22E3C605FE3E9654428C4710
:100DD400228593E6160054C2D8C50CC73EC6AD2979
:100DE400B24713858700D9B5130500209308000482
:100DF400130EF003E5BD83278800D843719B3306A7
:100E0400D7406366D700932506016387051283A53F
:100E1400C1D503A501D47D56B6956305C52E0566D7
:100E24003D06B2957D76F18D228542CE3ECC36CA02
:100E34003AC82EC6EF0030397D56B2454247D246F5
:100E4400E2477248AA88630AC5243385E70063E44D
:100E5400A824138E81EB03260E002E962320CE00A9
:100E6400B28E630C153303AF01D47D566303CF34C4
:100E74003386A84076962320CE0093FE7800638EB6
:100E84000E2893F888FF0566A10821063383B8006D
:100E94003306D641330666405206935546012285F1
:100EA40042D672D43ED236D03ACE46CC76CA1AC88E
:100EB4002EC6EF0050317D56B2454243D24EE24831
:100EC400724782569257225E32586304C532032613
:100ED4000E00330515412E951365150023241801C2
:100EE4002E9623A2A8002320CE00638607033D4547
:100EF4006374E52CCC435117619B8589D98DCCC390
:100F04001543B385E70023A2650023A46500636746
:100F1400E52E03A5480003A781D56374C70023AC5D
:100F2400C1D403A741D56374C70023AAC1D4C6871B
:100F340085AA0323480081B513E71600D8C3BE96DB
:100F4400136616002324D8002285D0C23EC6292663
:100F5400B247F25062541385870021618280904722
:100F64003E9754434CC63EC693E6160090C5228570
:100F740054C3DD24B247F2506254138587002161C3
:100F840082805C478908E30AF7D8CDB913569700E5
:100F9400914563FAC50ED14563E0C51C1305C6052A
:100FA4000E059305B6054295104161156316C500FB
:100FB400A1AA10466306C5004C42F199E36BB7FE43
:100FC4004846C8C790C71CC55CC675B3514763750E
:100FD400F70E13074005636DF71893D7C60093887F
:100FE400F706138EE7061395380009B3850F93F7B8
:100FF4003F002103F1CF0327C30065BB884793E873
:10100400160023A2170158C508C7BE96232AD80084
:101014002328D80013E715003E9623A6C60123A46F
:10102400C601D8C222850CC23EC63D24B2471385F0
:101034008700ADB993D83600138786003DB13E973B
:1010440054433EC6228593E6160054C33124B24766
:1010540013858700A1B993E51600CCC3BE96232A55
:10106400D8002328D800936516003E9723A6C6010E
:1010740023A4C601CCC2228510C33EC6F12AB247BE
:101084001385870025B113566700130596030E05D3
:101094009305860309BF638A070F83278800C84323
:1010A40071993306D5406366D50013270601E3051D
:1010B40007E822855522D5BE9388C705138EB70548
:1010C4001395380025B183278F00FD186392E71923
:1010D40093F73800611FE5FB032748009347F5FFAA
:1010E400F98F2322F80006051307F5FFE375F7D0FF
:1010F4003377F50011E706053377F500910F65DFC7
:10110400FE884DB1C1050DB3898505473317B70076
:101114003363E300232268006DB53383B8003306DC
:101124006040520693554601228542D472D23ED085
:1011340036CE3ACC46CA2EC61AC8EF00D0087D5621
:10114400B245D2486247F2468257125E2258E310F3
:10115400C5D842458145A5BB9305400563E2C50654
:101164001356C7001305F6060E059305E60625BDBE
:10117400130740156362F70693D7F6009388870731
:10118400138E77071395380095B6138E81EB832E53
:101194000E00AE9E2320DE01F9B1139F4801E31433
:1011A4000FCC83288800BA9513E5150023A2A80064
:1011B4009DB323A011D5D1B1854723A2F800D5BD95
:1011C4009305401563EEC5041356F700130586070F
:1011D4000E0593057607C1BB13074055636EF704EC
:1011E40093D726019388D707138EC7071395380022
:1011F400F5BCE11E3305D3018145D1B92285938520
:10120400870042CA72C836C6EFF05F825248424E27
:10121400B2468328880003260E0003A54800E5B9DA
:101224009305405563E1C502135627011305D607FC
:101234000E059305C60785BB1305803F9308F00789
:10124400130EE00765B41305803F9305E007A1BBC7
:101254008327480049BD82808280411106C64AC066
:1012640089CD22C426C22E84AA8419C15C59D1C74F
:101274008317C40089EB22449244B24001494A8551
:10128400024941018280A2852685BD285C542A89B1
:1012940091C74C4C26858297634605048357C40046
:1012A40093F70708B1E70C5891C9930704046385C1
:1012B400F5002685EFF08FF7232804026C4091C5D2
:1012C4002685EFF0AFF623220404EFF04F902316A7
:1012D4000400EFF0EF8FB240224492444A85024961
:1012E400410182808357C4007D5993F70708C5DF05
:1012F4000C482685EFF08FF37DB7EFF0EF8B8DBFB1
:10130400AA8503A5C1D391BF0397C500011122CCBF
:101314004EC606CE937787002E84AA89F1E78567A7
:1013240093870780D441D98F2396F500635BD0104F
:10133400032884026304080A26CA9316370183A487
:10134400090023A0090063C506104C4C01468546DC
:101354004E850298FD572A866303F5128317C4004D
:1013640003288402918B99C758401C58198E99C33D
:101374005C5C1D8E4C4C81464E8502987D578317CC
:10138400C4006319E50C83A6090075476364D7108C
:101394003707402005073357D700058B65CF14481E
:1013A4007D771307F77F7D8F2316E4002322040043
:1013B40014C0139737016355070083A70900CDCBE9
:1013C4000C5823A09900D5C9930704046385F5003C
:1013D4004E85EFF0AFE5D24423280402F240624484
:1013E400B2490145056182804AC803A90501630F1A
:1013F400090426CA84410D8B23A02501B38424410A
:10140400814711E3DC491CC4634690003DA82A9936
:10141400635D90025C504C4CA6864A864E8582974A
:10142400898CE346A0FE8357C400424993E707042E
:10143400F2402316F4006244D244B2497D5505615A
:101444008280D45DE346D0EE51BFD244424979B79D
:10145400304809BF14487D771307F77F7D8F231623
:10146400E4002322040014C013973701E35A07F45D
:101474000C5828C823A09900A1F9D24485B783A7A2
:101484000900E38D07EC138737FE01CBA91791C739
:101494008357C40093E7070461BF23A09900D24493
:1014A40035BFAA8719C1585901CB0397C50019E361
:1014B400014582803E8589BD01112EC606CE2AC40F
:1014C400EFE09FEFB245A2470397C50009C7F2407A
:1014D4003E85056115BDF24001450561828005CD5B
:1014E400AA8503A5C1D319C15C5999C78397C500BF
:1014F40099E30145828009BD01112EC62AC406CE96
:10150400EFE09FEBB24522458397C50085E3F240A7
:101514000145056182804D66C5654D651306064B20
:101524009385654A1305054C6FE0BFECF2400561F5
:10153400E1BB1C46638507188396C500397122DC1C
:1015440052D456D206DE93F786002E84AA8A328AB3
:10155400B5C79C49A5C726DA4AD84ED65AD093F7C0
:10156400260083240A00BDCB370B0080130B0BC06D
:10157400814901494E865685630D0912CA866376F0
:101584002B01B7060080938606C05C504C4C8297B2
:10159400635BA02A83278A00AA993309A940898F0B
:1015A4002324FA00E1FBD2544259B259025B0145AB
:1015B400F2506254225A925A21618280A285568541
:1015C400712C631A051A8316C40026DA4AD84ED63B
:1015D4005AD093F7260083240A00D9F75ECE62CC52
:1015E40093F71600F9EF1C4037070080130CF7FF40
:1015F400014B81496389090A13F7062003298400F2
:101604003E85630C0716CA8B63E0291F13F706484F
:101614003DC750480C481317160032971359F70169
:10162400B38BB7403A9993871B0013591940CE974F
:101634004A866374F9003E893E8693F60640638ABF
:10164400061CB2855685EFF04FE0630105200C4877
:101654005E862AC65D298357C400324793F7F7B7DD
:1016640093E707082316F400B3077941330577019C
:10167400232A240118C808C01CC44E89CE8BDA85DD
:101684005E867D2618441C403307274118C403276F
:101694008A00DE971CC0330737412324EA00630124
:1016A400071A8316C40003AB040083A94400A104F1
:1016B40091B783A9040003A94400A10465BD0145B1
:1016C4008280014B814B0145014C630E0B0425C5FF
:1016D400DE87DA8963F36701BE89544803298400ED
:1016E40008401C48369963F4A7006340390763C671
:1016F400D9105C504C4C6286568582972A89635077
:10170400A006B38B2B41054563830B0E83278A0008
:10171400B38727412324FA0063840712330B2B4138
:101724004A9CE3160BFA03AB4400A687A104E30C1E
:101734000BFE03AC07005A86A9456285012C630D94
:10174400050E0505B30B854161B7E2854A86CD24B4
:101754001C40A2855685CA971CC0A1335DD183174E
:10176400C400F24B624CD2544259B259025B93E723
:1017740007042316F4007D5525BD18486362F70459
:10178400584863EFE902CE8663733C01E28633E78F
:10179400E6025C504C4C5A865685998E8297E350EB
:1017A400A0FC2A8983278A00B3892941B38727416A
:1017B4002324FA00D1C78316C4001C404A9B1DBDD4
:1017C40063F329014E893E854A86DA8595241C40B7
:1017D4001844CA97330727411CC018C461F7A2856F
:1017E4005685C13161D1A5BF4E89CE8B49BDA28535
:1017F40056854539E30C05F09DB74E86E2850D2CE0
:1018040018441C404E8933073741CE9718C41CC076
:10181400CDBD568599212A87E31805E40C485685E1
:10182400EFF0CFA08357C4003147F24B624C23A0A2
:10183400EA0093F7F7F705BF93071B00BE8B51BD72
:10184400F24B624C8DB38317C40031BFB14723A060
:10185400FA00F24B8317C400624C31B703A7C1D31B
:10186400011106CE2A86AE8719C3545BE1C20397E1
:10187400C700937687009DC2944B8DCE0397C70013
:101884001376170039CAD04B23A407000145330649
:10189400C04090CFB9CAF2400561828093760701B7
:1018A400D1CE93764700B9EA944B13678700239609
:1018B400E700E9F6D8479305002013770728E30FDC
:1018C400B7FA3285BE853EC4EF00007EA247039777
:1018D400C700944B137617005DF6137627008145F5
:1018E40011E2CC4B8CC70145DDF693760708C5D6CB
:1018F400136707042396E7007D5571BF8C5B85C190
:1019040093860704638BD50032853EC632C4EFF05C
:10191400EF91B24722460397C70023A80702944BCE
:101924001377B7FD23A2070094C341B72AC43A85AD
:101934002EC6EFE07FA8B247224615BFA54613671F
:10194400070414C22396E7007D55B1B79377350099
:1019540013F7F50F99CB35C6834705007D166381D0
:10196400E706050593773500FDF70D486370C80455
:1019740093F5F50F93978500BE959397050137036B
:10198400FFFEB7888080BE951303F3EF93880808A1
:101994001C41AD8FB386670093C7F7FFF58FB3F78C
:1019A400170191E771161105E364C8FE19CA2A9656
:1019B40021A005056307C50083470500E39BE7FEF7
:1019C400828001458280411122C426C2AA842E85C8
:1019D40006C623A601D4EF00501CFD576307F5008B
:1019E400B240224492444101828083A7C1D4EDDBFA
:1019F400B24022449CC0924441018280411122C4DD
:101A0400CD674D649387C74A1304844A818F26C2E5
:101A140006C693D4274081C871143E941C40FD141B
:101A240071148297E5FCB2402244924441018280C1
:101A340063F1A502B387C500637DF50005CE2A9640
:101A440003C7F7FF7D16FD172300E600E31AC5FE62
:101A54008280BD4763E1C702AA879306F6FF5DC291
:101A64008506BE9603C7050085078505A38FE7FE97
:101A7400E39AD7FE8280B367B5008D8BAE88BDEF45
:101A840093574600139847002A98FD172A879441D4
:101A9400C10541072328D7FE83A645FF232AD7FE85
:101AA40083A685FF232CD7FE83A6C5FF232ED7FE4E
:101AB400E31F07FD92073387170193050701AA97D0
:101AC4001378C600C1072E8E9376F600630D0802C4
:101AD400F116F19A369751073308154103A305000F
:101AE400B3880501910523A06800E399E5FE1387F7
:101AF4004600B305C701BA970D8A85B79306F6FF6A
:101B0400AA87B9BF8280368689BFB3C7A5008D8BEB
:101B1400B308C500B1E71336460039E293773500C0
:101B24002A87CDE713F6C8FFB306E6409307000201
:101B340063C4D704AE86BA876371C70203A80600DC
:101B44009107910623AE07FFE3EAC7FE7D16198EBF
:101B5400719A91051107B2953297636617018280D5
:101B64002A87E37E15FF83C7050005078505A30FB4
:101B7400F7FEE39AE8FE8280944183A2450083AF96
:101B8400850003AFC50083AE050103AE450103A381
:101B9400850103A8C50114C39451130747022320E8
:101BA40057FE232ED7FE2322F7FFB306E640232455
:101BB400E7FF2326D7FF2328C7FF232A67FE232C0A
:101BC40007FF93854502E3C9D7FAADB783C605007D
:101BD400050793773700A30FD7FE8505A1D783C6E2
:101BE4000500050793773700A30FD7FE8505F9FF96
:101BF40015BF83A701D5A1C3D8437D48634DE8042D
:101C0400131827001DC1338307012324C30883A8A5
:101C1400871805463316E600B3E8C80023A417194D
:101C24002324D3108946630DD5000507D8C3C29772
:101C34008CC701458280938701EE23A8F1D46DBF40
:101C440083A6C7180507D8C3D18E23A6D718C29771
:101C54008CC7014582807D55828063800516011101
:101C640022CC26CA2E8406CEAA8432C0EFF0AFDE80
:101C7400824559479387B5006371F70EE19BBE8691
:101C840013D7F70163EFB714631D07140326C4FFCA
:101C9400130884FF1377C6FF635CD70C4D6E130ED5
:101CA4000E5E83288E003303E8000325430063831C
:101CB40068149378E5FF9A9883A8480093F818006D
:101CC4006393080E7199B308A70063DCD808058AEA
:101CD4000DE2832E84FFB30ED84103A64E00719A01
:101CE4003295B308E50063D4D822B308C70063D3A0
:101CF400D81C26853AC442C23EC0EFE01FF5824795
:101D040012482247AA866307052E0326C4FF9305BB
:101D140085FF799A4296630EB6161306C7FF93079A
:101D2400400263E1C71E4D47636AC716AA8722872C
:101D3400104390C35043D0C3184798C7A285268543
:101D440036C0EFE0BFCE2685EFF00FD18246F240D9
:101D54006244D244368505618280C146B687014714
:101D640015B78326C30003268300468754C690C64E
:101D7400832648003305F740BD45858A3306E800CD
:101D840063E0A504D98E2322D8005C4293E71700B0
:101D94005CC22685EFF04FCCA286F2406244D24466
:101DA400368505618280058A29F6832E84FFB30E69
:101DB400D84103A64E00719A0DBFB2856FE0FFE8CB
:101DC400DD8E2322D800B305F80013651500C8C1C1
:101DD4005C42A105268593E717005CC2EFE01FC5AE
:101DE4004DBFB1479CC08146F2406244D24436851F
:101DF400056182807199B308E5001383070163DEEE
:101E04006818058AE31706EE832E84FFB30ED841C3
:101E140003A64E00719A3295B308E500E3C768EC57
:101E240083A6CE0083A58E001306C7FF13074002C6
:101E3400D4C58CC693868E00636AC71ECD4536878B
:101E440063FEC5000C406D4723A4BE004C4023A68E
:101E5400BE006368C720210413870E01104010C31D
:101E6400504050C3104410C73386FE003387F840F7
:101E74002324CE001367170058C203A74E002685FB
:101E840036C0058BD98F23A2FE00EFF0EFBC82464B
:101E940029B78326C5FFF19A3697D9BD0C406D4703
:101EA4000CC14C404CC16362C70C130784009307F8
:101EB4008500BDBD83A6CE0083A58E001306C7FF93
:101EC40013054002D4C58CC693868E00636AC50A86
:101ED400CD45368763FEC5000C406D4723A4BE0084
:101EE4004C4023A6BE00636BC70E210413870E016A
:101EF400104010C3504050C3104410C73684468766
:101F04007688BDB5A2852AC02536824605BD8326BE
:101F1400C300832583001306C7FF13054002D4C5FD
:101F24008CC603A7CE0083A68E0013888E00D8C665
:101F340014C76368C508CD46428763FEC6001440D3
:101F44006D4723A4DE00544023A6DE006362C70C61
:101F5400210413870E01144014C3544054C3144481
:101F640014C742844687768821B5184418C5584456
:101F740058C56306F60813070401930705014DBB12
:101F84003685A28576C63EC446C236C0EFF05FAA47
:101F9400B24EA2479248824695B73E983387F8409E
:101FA40023240E01136717002322E8000327C4FF2C
:101FB4002685058BD98F232EF4FEEFF0EFA9A28698
:101FC400E9BB4285A28576C63EC446C242C0EFF054
:101FD4003FA602489248A247B24E61B7184423A8CC
:101FE400EE00584423AAEE006302A60641041387B8
:101FF4008E01FDBD2685EFF02FA68146F5B310486E
:10200400130784019307850110C9504850C90DB3C3
:1020140014441307400223A8DE00544423AADE001C
:10202400630FE604410413878E0135B73685A28514
:1020340076C63EC446C236C0EFF09F9FCD67138E6E
:10204400075EB24EA2479248824639BD10481387B4
:102054000E02610423ACCE000326C4FF23AECE00DF
:1020640041BD0C441307400223A8BE004C4423AADC
:10207400BE006301E602410413878E01C5B3144810
:1020840013870E02610423ACDE008326C4FF23AE53
:10209400DE00D1B5104813870E0223ACCE005048A1
:1020A400610423AECE005DBB8397C50013F7270000
:1020B40001CB9387350405479CC19CC9D8C982804C
:1020C4002E878395E5001971A2DC86DE2A8463C617
:1020D400050630083AC49D222247634E0504930541
:1020E40000402285A6DA3AC4F244EFE01FB6224744
:1020F4008317C70041C59306004093E7070854CBF4
:1021040093D6C4402316F70008C308CBBD8A0946FA
:102114006396C6088315E70022853AC4A12A22479C
:102124008317C70025CDF19B8566D65493E7170026
:10213400938606802DA88317C70093F7070893B7E3
:102144001700B307F04093F5073C938505042285F7
:102154003AC62EC4EFE07FAF3247A2458317C700CB
:1021640019CD93E7070808C308CB4CCB8146D58F1C
:102174002316F700F650665409618280D65493F60C
:102184000720EDFAF19B9306370493E727000546F1
:102194002316F70014C314CB50CBE9BF8566D6547D
:1021A40093860680E9B7AE878395E500328763CDD1
:1021B4000504197132C4300836C63EC286DEBD2815
:1021C40092472247B24663430502F247BD657976DA
:1021D400ED8FB297F65093B717009CC213060040D8
:1021E400056510C3130505800961828083D7C70084
:1021F40093F707088DC7F65081479CC21306000465
:1022040010C301450961828083D7C70093F707088B
:1022140099EF130600409CC2014510C38280F6501A
:102224009CC21306004010C30145096182808147A6
:10223400130600049CC2014510C382804111AE877D
:1022440022C426C2B285AA843E8506C623A601D42A
:102254004520FD576307F500B240224492444101F2
:10226400828083A7C1D4EDDBB24022449CC0924457
:1022740041018280411122C426C2AA842E8506C649
:1022840023A601D45520FD576307F500B24022442C
:1022940092444101828083A7C1D4EDDBB240224441
:1022A4009CC0924441018280930890037300000013
:1022B400634305008280011106CE2AC6C922B247B3
:1022C400F240B307F0401CC1FD573E850561828092
:1022D4009308D005730000006343050001A00111B9
:1022E40006CE2AC6692AB247B307F0401CC101A032
:1022F4003571AE8706CF22CD930800050C08730014
:1023040000002A84634A05000C083E852122FA4015
:1023140022856A440D6182803EC633048040852252
:1023240000C1B2477D54CDB759712C0086D6C93748
:10233400FD576308F5003245B6503581058965615E
:102344008280B6500145656182809308E003730082
:102354000000634305008280011106CE2AC60522CF
:10236400B247F240B307F0401CC1FD573E850561FA
:1023740082809308F00373000000634305008280A9
:10238400011106CE2AC6E528B247F240B307F04051
:102394001CC1FD573E850561828083A701D641118A
:1023A40006C62A8781EF9308600D0145730000007B
:1023B400FD576306F502AA8723A0A1D63305F700CB
:1023C4009308600D7300000083A701D63E9763183D
:1023D400E500B24023A0A1D63E854101828045207C
:1023E400B240B1471CC17D5541018280930800046D
:1023F40073000000634305008280011106CE2AC6E3
:10240400BD28B247F240B307F0401CC1FD573E85DA
:1024140005618280944198459C4983A3450183A228
:10242400850183AFC50103AF050283AE050303AE87
:10243400050403A3850303A8850483A8C504B04D3C
:102444002310D5002311E500F44DB8555CC1FC55AB
:1024540023147500231555002316F5012317E501F0
:102464002328D5012326C50523246504232C05012F
:10247400232E150110D554D518DD5CDD828003A50B
:04248400C1D38280BE
:1024880048656C6C6F2C20524953432D562100002F
:022498000A0038
:04249C00000000003C
:0834A000D00001005001010001
:0434A80022010100FC
:1034B0000000000003000000303A0100000000009E
:1034C00000000000303A0100983A0100003B010082
:1034D00000000000000000000000000000000000EC
:1034E00000000000000000000000000000000000DC
:1034F00000000000000000000000000000000000CC
:1035000000000000000000000000000000000000BB
:1035100000000000000000000000000000000000AB
:10352000000000000000000000000000000000009B
:10353000000000000000000000000000000000008B
:10354000000000000000000000000000000000007B
:10355000000000000000000001000000000000006A
:103560000E33CDAB34126DE6ECDE05000B0000002F
:10357000000000000000000000000000000000004B
:10358000000000000000000000000000000000003B
:10359000000000000000000000000000000000002B
:1035A000000000000000000000000000000000001B
:1035B000000000000000000000000000000000000B
:1035C00000000000000000000000000000000000FB
:1035D00000000000000000000000000000000000EB
:1035E0000000000000000000E0350100E0350100AF
:1035F000E8350100E8350100F0350100F035010043
:10360000F8350100F83501000036010000360100F0
:10361000083601000836010010360100103601009E
:10362000183601001836010020360100203601004E
:1036300028360100283601003036010030360100FE
:1036400038360100383601004036010040360100AE
:10365000483601004836010050360100503601005E
:10366000583601005836010060360100603601000E
:1036700068360100683601007036010070360100BE
:10368000783601007836010080360100803601006E
:10369000883601008836010090360100903601001E
:1036A0009836010098360100A0360100A0360100CE
:1036B000A8360100A8360100B0360100B03601007E
:1036C000B8360100B8360100C0360100C03601002E
:1036D000C8360100C8360100D0360100D0360100DE
:1036E000D8360100D8360100E0360100E03601008E
:1036F000E8360100E8360100F0360100F03601003E
:10370000F8360100F83601000037010000370100EB
:103710000837010008370100103701001037010099
:103720001837010018370100203701002037010049
:1037300028370100283701003037010030370100F9
:1037400038370100383701004037010040370100A9
:103750004837010048370100503701005037010059
:103760005837010058370100603701006037010009
:1037700068370100683701007037010070370100B9
:103780007837010078370100803701008037010069
:103790008837010088370100903701009037010019
:1037A0009837010098370100A0370100A0370100C9
:1037B000A8370100A8370100B0370100B037010079
:1037C000B8370100B8370100C0370100C037010029
:1037D000C8370100C8370100D0370100D0370100D9
:1037E000D8370100D8370100E0370100E037010089
:1037F000E8370100E8370100F0370100F037010039
:10380000F8370100F83701000038010000380100E6
:103810000838010008380100103801001038010094
:103820001838010018380100203801002038010044
:1038300028380100283801003038010030380100F4
:1038400038380100383801004038010040380100A4
:103850004838010048380100503801005038010054
:103860005838010058380100603801006038010004
:1038700068380100683801007038010070380100B4
:103880007838010078380100803801008038010064
:103890008838010088380100903801009038010014
:1038A0009838010098380100A0380100A0380100C4
:1038B000A8380100A8380100B0380100B038010074
:1038C000B8380100B8380100C0380100C038010024
:1038D000C8380100C8380100D0380100D0380100D4
:1038E000D8380100D8380100E0380100E038010084
:1038F000E8380100E8380100F0380100F038010034
:10390000F8380100F83801000039010000390100E1
:10391000083901000839010010390100103901008F
:10392000183901001839010020390100203901003F
:1039300028390100283901003039010030390100EF
:10394000383901003839010040390100403901009F
:10395000483901004839010050390100503901004F
:1039600058390100583901006039010060390100FF
:1039700068390100683901007039010070390100AF
:10398000783901007839010080390100803901005F
:10399000883901008839010090390100903901000F
:1039A0009839010098390100A0390100A0390100BF
:1039B000A8390100A8390100B0390100B03901006F
:1039C000B8390100B8390100C0390100C03901001F
:1039D000C8390100C8390100D0390100D0390100CF
:0839E000D8390100D8390100BB
:1039E80000000000C0340100FFFFFFFF00000200DC
:04000003100000E207
:00000001FF
